{
  "contractName": "Patreon",
  "abi": [
    {
      "inputs": [
        {
          "internalType": "uint256",
          "name": "",
          "type": "uint256"
        }
      ],
      "name": "subscriptions",
      "outputs": [
        {
          "internalType": "uint256",
          "name": "expiryTimestamp",
          "type": "uint256"
        },
        {
          "internalType": "uint256",
          "name": "amount",
          "type": "uint256"
        },
        {
          "internalType": "address",
          "name": "userAddress",
          "type": "address"
        },
        {
          "internalType": "address",
          "name": "creatorAddress",
          "type": "address"
        }
      ],
      "stateMutability": "view",
      "type": "function"
    },
    {
      "inputs": [
        {
          "internalType": "uint256",
          "name": "",
          "type": "uint256"
        }
      ],
      "name": "users",
      "outputs": [
        {
          "internalType": "uint256",
          "name": "id",
          "type": "uint256"
        },
        {
          "internalType": "uint256",
          "name": "amount",
          "type": "uint256"
        },
        {
          "internalType": "address",
          "name": "userAddress",
          "type": "address"
        },
        {
          "internalType": "string",
          "name": "username",
          "type": "string"
        },
        {
          "internalType": "string",
          "name": "description",
          "type": "string"
        }
      ],
      "stateMutability": "view",
      "type": "function"
    },
    {
      "inputs": [],
      "name": "postsCount",
      "outputs": [
        {
          "internalType": "uint256",
          "name": "",
          "type": "uint256"
        }
      ],
      "stateMutability": "view",
      "type": "function"
    },
    {
      "inputs": [],
      "name": "getSubscriptions",
      "outputs": [
        {
          "components": [
            {
              "internalType": "uint256",
              "name": "expiryTimestamp",
              "type": "uint256"
            },
            {
              "internalType": "uint256",
              "name": "amount",
              "type": "uint256"
            },
            {
              "internalType": "address",
              "name": "userAddress",
              "type": "address"
            },
            {
              "internalType": "address",
              "name": "creatorAddress",
              "type": "address"
            }
          ],
          "internalType": "struct Patreon.Subscription[]",
          "name": "",
          "type": "tuple[]"
        }
      ],
      "stateMutability": "view",
      "type": "function"
    },
    {
      "inputs": [],
      "name": "getPosts",
      "outputs": [
        {
          "components": [
            {
              "internalType": "uint256",
              "name": "id",
              "type": "uint256"
            },
            {
              "internalType": "bool",
              "name": "isPublic",
              "type": "bool"
            },
            {
              "internalType": "address",
              "name": "creatorAddress",
              "type": "address"
            },
            {
              "internalType": "string",
              "name": "postName",
              "type": "string"
            },
            {
              "internalType": "string",
              "name": "postDescription",
              "type": "string"
            },
            {
              "internalType": "string[]",
              "name": "images",
              "type": "string[]"
            }
          ],
          "internalType": "struct Patreon.Post[]",
          "name": "",
          "type": "tuple[]"
        }
      ],
      "stateMutability": "view",
      "type": "function"
    },
    {
      "inputs": [
        {
          "internalType": "address",
          "name": "_creatorAddress",
          "type": "address"
        }
      ],
      "name": "getCreatorData",
      "outputs": [
        {
          "components": [
            {
              "internalType": "uint256",
              "name": "id",
              "type": "uint256"
            },
            {
              "internalType": "bool",
              "name": "isPublic",
              "type": "bool"
            },
            {
              "internalType": "address",
              "name": "creatorAddress",
              "type": "address"
            },
            {
              "internalType": "string",
              "name": "postName",
              "type": "string"
            },
            {
              "internalType": "string",
              "name": "postDescription",
              "type": "string"
            },
            {
              "internalType": "string[]",
              "name": "images",
              "type": "string[]"
            }
          ],
          "internalType": "struct Patreon.Post[]",
          "name": "",
          "type": "tuple[]"
        },
        {
          "components": [
            {
              "internalType": "uint256",
              "name": "id",
              "type": "uint256"
            },
            {
              "internalType": "uint256",
              "name": "amount",
              "type": "uint256"
            },
            {
              "internalType": "address",
              "name": "userAddress",
              "type": "address"
            },
            {
              "internalType": "string",
              "name": "username",
              "type": "string"
            },
            {
              "internalType": "string",
              "name": "description",
              "type": "string"
            },
            {
              "internalType": "address[]",
              "name": "subscribers",
              "type": "address[]"
            }
          ],
          "internalType": "struct Patreon.User",
          "name": "",
          "type": "tuple"
        }
      ],
      "stateMutability": "view",
      "type": "function"
    },
    {
      "inputs": [
        {
          "internalType": "string",
          "name": "_username",
          "type": "string"
        },
        {
          "internalType": "string",
          "name": "_description",
          "type": "string"
        }
      ],
      "name": "createUser",
      "outputs": [],
      "stateMutability": "nonpayable",
      "type": "function"
    },
    {
      "inputs": [
        {
          "internalType": "string",
          "name": "_postName",
          "type": "string"
        },
        {
          "internalType": "string",
          "name": "_postDescription",
          "type": "string"
        },
        {
          "internalType": "string[]",
          "name": "_images",
          "type": "string[]"
        }
      ],
      "name": "createPost",
      "outputs": [],
      "stateMutability": "nonpayable",
      "type": "function"
    },
    {
      "inputs": [
        {
          "internalType": "uint256",
          "name": "_id",
          "type": "uint256"
        },
        {
          "internalType": "string",
          "name": "_postName",
          "type": "string"
        },
        {
          "internalType": "string",
          "name": "_postDescription",
          "type": "string"
        }
      ],
      "name": "updatePost",
      "outputs": [],
      "stateMutability": "nonpayable",
      "type": "function"
    },
    {
      "inputs": [
        {
          "internalType": "uint256",
          "name": "_id",
          "type": "uint256"
        },
        {
          "internalType": "uint256",
          "name": "_expiryTimestamp",
          "type": "uint256"
        }
      ],
      "name": "subscribeToCreator",
      "outputs": [],
      "stateMutability": "payable",
      "type": "function"
    },
    {
      "inputs": [
        {
          "internalType": "uint256",
          "name": "_id",
          "type": "uint256"
        },
        {
          "internalType": "uint256",
          "name": "_expiryTimestamp",
          "type": "uint256"
        }
      ],
      "name": "renewSubscription",
      "outputs": [],
      "stateMutability": "payable",
      "type": "function"
    }
  ],
  "bytecode": "0x608060405234801561001057600080fd5b5061391e806100206000396000f3fe60806040526004361061009c5760003560e01c80633b47a9ac116100645780633b47a9ac146101a757806341f3004a146101d25780635ec40334146101fd57806366d1cac91461021957806387b162b514610242578063b01c7a4d1461026b5761009c565b80630d64e697146100a1578063240f6a09146100df5780632d5bbf60146100fb5780632dcbe5451461013b578063365b98b214610166575b600080fd5b3480156100ad57600080fd5b506100c860048036038101906100c39190612dc9565b610294565b6040516100d6929190613439565b60405180910390f35b6100f960048036038101906100f49190612f9d565b610f9b565b005b34801561010757600080fd5b50610122600480360381019061011d9190612ef5565b611417565b60405161013294939291906134ad565b60405180910390f35b34801561014757600080fd5b50610150611497565b60405161015d9190613492565b60405180910390f35b34801561017257600080fd5b5061018d60048036038101906101889190612ef5565b6114a3565b60405161019e9594939291906134f2565b60405180910390f35b3480156101b357600080fd5b506101bc611619565b6040516101c99190613470565b60405180910390f35b3480156101de57600080fd5b506101e76119a1565b6040516101f49190613417565b60405180910390f35b61021760048036038101906102129190612f9d565b61221d565b005b34801561022557600080fd5b50610240600480360381019061023b9190612f1e565b6125cc565b005b34801561024e57600080fd5b5061026960048036038101906102649190612df2565b612734565b005b34801561027757600080fd5b50610292600480360381019061028d9190612e5e565b61288c565b005b606061029e6129d1565b6000805b6000805490508110156105ae578473ffffffffffffffffffffffffffffffffffffffff1660008281548110610300577f4e487b7100000000000000000000000000000000000000000000000000000000600052603260045260246000fd5b906000526020600020906005020160010160019054906101000a900473ffffffffffffffffffffffffffffffffffffffff1673ffffffffffffffffffffffffffffffffffffffff16141561059b576000805b600280549050811015610523573373ffffffffffffffffffffffffffffffffffffffff16600282815481106103b0577f4e487b7100000000000000000000000000000000000000000000000000000000600052603260045260246000fd5b906000526020600020906004020160020160009054906101000a900473ffffffffffffffffffffffffffffffffffffffff1673ffffffffffffffffffffffffffffffffffffffff1614801561050657506002818154811061043a577f4e487b7100000000000000000000000000000000000000000000000000000000600052603260045260246000fd5b906000526020600020906004020160030160009054906101000a900473ffffffffffffffffffffffffffffffffffffffff1673ffffffffffffffffffffffffffffffffffffffff16600084815481106104bc577f4e487b7100000000000000000000000000000000000000000000000000000000600052603260045260246000fd5b906000526020600020906005020160010160019054906101000a900473ffffffffffffffffffffffffffffffffffffffff1673ffffffffffffffffffffffffffffffffffffffff16145b1561051057600191505b808061051b906137d3565b915050610352565b508080610585575060008281548110610565577f4e487b7100000000000000000000000000000000000000000000000000000000600052603260045260246000fd5b906000526020600020906005020160010160009054906101000a900460ff165b15610599578280610595906137d3565b9350505b505b80806105a6906137d3565b9150506102a2565b5060008167ffffffffffffffff8111156105f1577f4e487b7100000000000000000000000000000000000000000000000000000000600052604160045260246000fd5b60405190808252806020026020018201604052801561062a57816020015b610617612a1d565b81526020019060019003908161060f5790505b5090506000915060005b600080549050811015610c4f578573ffffffffffffffffffffffffffffffffffffffff1660008281548110610692577f4e487b7100000000000000000000000000000000000000000000000000000000600052603260045260246000fd5b906000526020600020906005020160010160019054906101000a900473ffffffffffffffffffffffffffffffffffffffff1673ffffffffffffffffffffffffffffffffffffffff161415610c3c576000805b6002805490508110156108b5573373ffffffffffffffffffffffffffffffffffffffff1660028281548110610742577f4e487b7100000000000000000000000000000000000000000000000000000000600052603260045260246000fd5b906000526020600020906004020160020160009054906101000a900473ffffffffffffffffffffffffffffffffffffffff1673ffffffffffffffffffffffffffffffffffffffff161480156108985750600281815481106107cc577f4e487b7100000000000000000000000000000000000000000000000000000000600052603260045260246000fd5b906000526020600020906004020160030160009054906101000a900473ffffffffffffffffffffffffffffffffffffffff1673ffffffffffffffffffffffffffffffffffffffff166000848154811061084e577f4e487b7100000000000000000000000000000000000000000000000000000000600052603260045260246000fd5b906000526020600020906005020160010160019054906101000a900473ffffffffffffffffffffffffffffffffffffffff1673ffffffffffffffffffffffffffffffffffffffff16145b156108a257600191505b80806108ad906137d3565b9150506106e4565b5080806109175750600082815481106108f7577f4e487b7100000000000000000000000000000000000000000000000000000000600052603260045260246000fd5b906000526020600020906005020160010160009054906101000a900460ff165b15610c3a5760008281548110610956577f4e487b7100000000000000000000000000000000000000000000000000000000600052603260045260246000fd5b90600052602060002090600502016040518060c0016040529081600082015481526020016001820160009054906101000a900460ff161515151581526020016001820160019054906101000a900473ffffffffffffffffffffffffffffffffffffffff1673ffffffffffffffffffffffffffffffffffffffff1673ffffffffffffffffffffffffffffffffffffffff1681526020016002820180546109fa90613770565b80601f0160208091040260200160405190810160405280929190818152602001828054610a2690613770565b8015610a735780601f10610a4857610100808354040283529160200191610a73565b820191906000526020600020905b815481529060010190602001808311610a5657829003601f168201915b50505050508152602001600382018054610a8c90613770565b80601f0160208091040260200160405190810160405280929190818152602001828054610ab890613770565b8015610b055780601f10610ada57610100808354040283529160200191610b05565b820191906000526020600020905b815481529060010190602001808311610ae857829003601f168201915b5050505050815260200160048201805480602002602001604051908101604052809291908181526020016000905b82821015610bdf578382906000526020600020018054610b5290613770565b80601f0160208091040260200160405190810160405280929190818152602001828054610b7e90613770565b8015610bcb5780601f10610ba057610100808354040283529160200191610bcb565b820191906000526020600020905b815481529060010190602001808311610bae57829003601f168201915b505050505081526020019060010190610b33565b5050505081525050838581518110610c20577f4e487b7100000000000000000000000000000000000000000000000000000000600052603260045260246000fd5b60200260200101819052508380610c36906137d3565b9450505b505b8080610c47906137d3565b915050610634565b50610c586129d1565b60005b600180549050811015610f8c578673ffffffffffffffffffffffffffffffffffffffff1660018281548110610cb9577f4e487b7100000000000000000000000000000000000000000000000000000000600052603260045260246000fd5b906000526020600020906006020160020160009054906101000a900473ffffffffffffffffffffffffffffffffffffffff1673ffffffffffffffffffffffffffffffffffffffff161415610f795760018181548110610d41577f4e487b7100000000000000000000000000000000000000000000000000000000600052603260045260246000fd5b90600052602060002090600602016040518060c001604052908160008201548152602001600182015481526020016002820160009054906101000a900473ffffffffffffffffffffffffffffffffffffffff1673ffffffffffffffffffffffffffffffffffffffff1673ffffffffffffffffffffffffffffffffffffffff168152602001600382018054610dd490613770565b80601f0160208091040260200160405190810160405280929190818152602001828054610e0090613770565b8015610e4d5780601f10610e2257610100808354040283529160200191610e4d565b820191906000526020600020905b815481529060010190602001808311610e3057829003601f168201915b50505050508152602001600482018054610e6690613770565b80601f0160208091040260200160405190810160405280929190818152602001828054610e9290613770565b8015610edf5780601f10610eb457610100808354040283529160200191610edf565b820191906000526020600020905b815481529060010190602001808311610ec257829003601f168201915b5050505050815260200160058201805480602002602001604051908101604052809291908181526020018280548015610f6d57602002820191906000526020600020905b8160009054906101000a900473ffffffffffffffffffffffffffffffffffffffff1673ffffffffffffffffffffffffffffffffffffffff1681526020019060010190808311610f23575b50505050508152505091505b8080610f84906137d3565b915050610c5b565b50818194509450505050915091565b60005b600180549050811015611412578260018281548110610fe6577f4e487b7100000000000000000000000000000000000000000000000000000000600052603260045260246000fd5b90600052602060002090600602016000015414156113ff5760006001828154811061103a577f4e487b7100000000000000000000000000000000000000000000000000000000600052603260045260246000fd5b9060005260206000209060060201600501805490509050336001838154811061108c577f4e487b7100000000000000000000000000000000000000000000000000000000600052603260045260246000fd5b906000526020600020906006020160050182815481106110d5577f4e487b7100000000000000000000000000000000000000000000000000000000600052603260045260246000fd5b9060005260206000200160006101000a81548173ffffffffffffffffffffffffffffffffffffffff021916908373ffffffffffffffffffffffffffffffffffffffff16021790555060018281548110611157577f4e487b7100000000000000000000000000000000000000000000000000000000600052603260045260246000fd5b90600052602060002090600602016001015434101561117557600080fd5b600182815481106111af577f4e487b7100000000000000000000000000000000000000000000000000000000600052603260045260246000fd5b906000526020600020906006020160020160009054906101000a900473ffffffffffffffffffffffffffffffffffffffff1673ffffffffffffffffffffffffffffffffffffffff166108fc349081150290604051600060405180830381858888f19350505050158015611226573d6000803e3d6000fd5b506002604051806080016040528085815260200160018581548110611274577f4e487b7100000000000000000000000000000000000000000000000000000000600052603260045260246000fd5b90600052602060002090600602016001015481526020013373ffffffffffffffffffffffffffffffffffffffff168152602001600185815481106112e1577f4e487b7100000000000000000000000000000000000000000000000000000000600052603260045260246000fd5b906000526020600020906006020160020160009054906101000a900473ffffffffffffffffffffffffffffffffffffffff1673ffffffffffffffffffffffffffffffffffffffff168152509080600181540180825580915050600190039060005260206000209060040201600090919091909150600082015181600001556020820151816001015560408201518160020160006101000a81548173ffffffffffffffffffffffffffffffffffffffff021916908373ffffffffffffffffffffffffffffffffffffffff16021790555060608201518160030160006101000a81548173ffffffffffffffffffffffffffffffffffffffff021916908373ffffffffffffffffffffffffffffffffffffffff160217905550505050611412565b808061140a906137d3565b915050610f9e565b505050565b6002818154811061142757600080fd5b90600052602060002090600402016000915090508060000154908060010154908060020160009054906101000a900473ffffffffffffffffffffffffffffffffffffffff16908060030160009054906101000a900473ffffffffffffffffffffffffffffffffffffffff16905084565b60008080549050905090565b600181815481106114b357600080fd5b90600052602060002090600602016000915090508060000154908060010154908060020160009054906101000a900473ffffffffffffffffffffffffffffffffffffffff169080600301805461150890613770565b80601f016020809104026020016040519081016040528092919081815260200182805461153490613770565b80156115815780601f1061155657610100808354040283529160200191611581565b820191906000526020600020905b81548152906001019060200180831161156457829003601f168201915b50505050509080600401805461159690613770565b80601f01602080910402602001604051908101604052809291908181526020018280546115c290613770565b801561160f5780601f106115e45761010080835404028352916020019161160f565b820191906000526020600020905b8154815290600101906020018083116115f257829003601f168201915b5050505050905085565b60606000805b6002805490508110156116ed573373ffffffffffffffffffffffffffffffffffffffff166002828154811061167d577f4e487b7100000000000000000000000000000000000000000000000000000000600052603260045260246000fd5b906000526020600020906004020160020160009054906101000a900473ffffffffffffffffffffffffffffffffffffffff1673ffffffffffffffffffffffffffffffffffffffff1614156116da5781806116d6906137d3565b9250505b80806116e5906137d3565b91505061161f565b5060008167ffffffffffffffff811115611730577f4e487b7100000000000000000000000000000000000000000000000000000000600052604160045260246000fd5b60405190808252806020026020018201604052801561176957816020015b611756612a6b565b81526020019060019003908161174e5790505b5090506000915060005b600280549050811015611998573373ffffffffffffffffffffffffffffffffffffffff16600282815481106117d1577f4e487b7100000000000000000000000000000000000000000000000000000000600052603260045260246000fd5b906000526020600020906004020160020160009054906101000a900473ffffffffffffffffffffffffffffffffffffffff1673ffffffffffffffffffffffffffffffffffffffff1614156119855760028181548110611859577f4e487b7100000000000000000000000000000000000000000000000000000000600052603260045260246000fd5b906000526020600020906004020160405180608001604052908160008201548152602001600182015481526020016002820160009054906101000a900473ffffffffffffffffffffffffffffffffffffffff1673ffffffffffffffffffffffffffffffffffffffff1673ffffffffffffffffffffffffffffffffffffffff1681526020016003820160009054906101000a900473ffffffffffffffffffffffffffffffffffffffff1673ffffffffffffffffffffffffffffffffffffffff1673ffffffffffffffffffffffffffffffffffffffff168152505082848151811061196b577f4e487b7100000000000000000000000000000000000000000000000000000000600052603260045260246000fd5b60200260200101819052508280611981906137d3565b9350505b8080611990906137d3565b915050611773565b50809250505090565b60606000805b600080549050811015611c13576000805b600280549050811015611b89573373ffffffffffffffffffffffffffffffffffffffff1660028281548110611a16577f4e487b7100000000000000000000000000000000000000000000000000000000600052603260045260246000fd5b906000526020600020906004020160020160009054906101000a900473ffffffffffffffffffffffffffffffffffffffff1673ffffffffffffffffffffffffffffffffffffffff16148015611b6c575060028181548110611aa0577f4e487b7100000000000000000000000000000000000000000000000000000000600052603260045260246000fd5b906000526020600020906004020160030160009054906101000a900473ffffffffffffffffffffffffffffffffffffffff1673ffffffffffffffffffffffffffffffffffffffff1660008481548110611b22577f4e487b7100000000000000000000000000000000000000000000000000000000600052603260045260246000fd5b906000526020600020906005020160010160019054906101000a900473ffffffffffffffffffffffffffffffffffffffff1673ffffffffffffffffffffffffffffffffffffffff16145b15611b7657600191505b8080611b81906137d3565b9150506119b8565b508080611beb575060008281548110611bcb577f4e487b7100000000000000000000000000000000000000000000000000000000600052603260045260246000fd5b906000526020600020906005020160010160009054906101000a900460ff165b15611bff578280611bfb906137d3565b9350505b508080611c0b906137d3565b9150506119a7565b5060008167ffffffffffffffff811115611c56577f4e487b7100000000000000000000000000000000000000000000000000000000600052604160045260246000fd5b604051908082528060200260200182016040528015611c8f57816020015b611c7c612a1d565b815260200190600190039081611c745790505b5090506000915060005b600080549050811015612214576000805b600280549050811015611e7b573373ffffffffffffffffffffffffffffffffffffffff1660028281548110611d08577f4e487b7100000000000000000000000000000000000000000000000000000000600052603260045260246000fd5b906000526020600020906004020160020160009054906101000a900473ffffffffffffffffffffffffffffffffffffffff1673ffffffffffffffffffffffffffffffffffffffff16148015611e5e575060028181548110611d92577f4e487b7100000000000000000000000000000000000000000000000000000000600052603260045260246000fd5b906000526020600020906004020160030160009054906101000a900473ffffffffffffffffffffffffffffffffffffffff1673ffffffffffffffffffffffffffffffffffffffff1660008481548110611e14577f4e487b7100000000000000000000000000000000000000000000000000000000600052603260045260246000fd5b906000526020600020906005020160010160019054906101000a900473ffffffffffffffffffffffffffffffffffffffff1673ffffffffffffffffffffffffffffffffffffffff16145b15611e6857600191505b8080611e73906137d3565b915050611caa565b508080611edd575060008281548110611ebd577f4e487b7100000000000000000000000000000000000000000000000000000000600052603260045260246000fd5b906000526020600020906005020160010160009054906101000a900460ff165b156122005760008281548110611f1c577f4e487b7100000000000000000000000000000000000000000000000000000000600052603260045260246000fd5b90600052602060002090600502016040518060c0016040529081600082015481526020016001820160009054906101000a900460ff161515151581526020016001820160019054906101000a900473ffffffffffffffffffffffffffffffffffffffff1673ffffffffffffffffffffffffffffffffffffffff1673ffffffffffffffffffffffffffffffffffffffff168152602001600282018054611fc090613770565b80601f0160208091040260200160405190810160405280929190818152602001828054611fec90613770565b80156120395780601f1061200e57610100808354040283529160200191612039565b820191906000526020600020905b81548152906001019060200180831161201c57829003601f168201915b5050505050815260200160038201805461205290613770565b80601f016020809104026020016040519081016040528092919081815260200182805461207e90613770565b80156120cb5780601f106120a0576101008083540402835291602001916120cb565b820191906000526020600020905b8154815290600101906020018083116120ae57829003601f168201915b5050505050815260200160048201805480602002602001604051908101604052809291908181526020016000905b828210156121a557838290600052602060002001805461211890613770565b80601f016020809104026020016040519081016040528092919081815260200182805461214490613770565b80156121915780601f1061216657610100808354040283529160200191612191565b820191906000526020600020905b81548152906001019060200180831161217457829003601f168201915b5050505050815260200190600101906120f9565b50505050815250508385815181106121e6577f4e487b7100000000000000000000000000000000000000000000000000000000600052603260045260246000fd5b602002602001018190525083806121fc906137d3565b9450505b50808061220c906137d3565b915050611c99565b50809250505090565b60005b6001805490508110156125c7578260018281548110612268577f4e487b7100000000000000000000000000000000000000000000000000000000600052603260045260246000fd5b90600052602060002090600602016000015414156125b45760005b6002805490508110156125ae573373ffffffffffffffffffffffffffffffffffffffff16600282815481106122e1577f4e487b7100000000000000000000000000000000000000000000000000000000600052603260045260246000fd5b906000526020600020906004020160020160009054906101000a900473ffffffffffffffffffffffffffffffffffffffff1673ffffffffffffffffffffffffffffffffffffffff1614801561243757506001828154811061236b577f4e487b7100000000000000000000000000000000000000000000000000000000600052603260045260246000fd5b906000526020600020906006020160020160009054906101000a900473ffffffffffffffffffffffffffffffffffffffff1673ffffffffffffffffffffffffffffffffffffffff16600282815481106123ed577f4e487b7100000000000000000000000000000000000000000000000000000000600052603260045260246000fd5b906000526020600020906004020160030160009054906101000a900473ffffffffffffffffffffffffffffffffffffffff1673ffffffffffffffffffffffffffffffffffffffff16145b1561259b578260028281548110612477577f4e487b7100000000000000000000000000000000000000000000000000000000600052603260045260246000fd5b906000526020600020906004020160000181905550600182815481106124c6577f4e487b7100000000000000000000000000000000000000000000000000000000600052603260045260246000fd5b9060005260206000209060060201600101543410156124e457600080fd5b6001828154811061251e577f4e487b7100000000000000000000000000000000000000000000000000000000600052603260045260246000fd5b906000526020600020906006020160020160009054906101000a900473ffffffffffffffffffffffffffffffffffffffff1673ffffffffffffffffffffffffffffffffffffffff166108fc349081150290604051600060405180830381858888f19350505050158015612595573d6000803e3d6000fd5b506125ae565b80806125a6906137d3565b915050612283565b506125c7565b80806125bf906137d3565b915050612220565b505050565b60008381548110612606577f4e487b7100000000000000000000000000000000000000000000000000000000600052603260045260246000fd5b906000526020600020906005020160010160019054906101000a900473ffffffffffffffffffffffffffffffffffffffff1673ffffffffffffffffffffffffffffffffffffffff163373ffffffffffffffffffffffffffffffffffffffff161461266f57600080fd5b81600084815481106126aa577f4e487b7100000000000000000000000000000000000000000000000000000000600052603260045260246000fd5b906000526020600020906005020160020190805190602001906126ce929190612abf565b50806000848154811061270a577f4e487b7100000000000000000000000000000000000000000000000000000000600052603260045260246000fd5b9060005260206000209060050201600301908051906020019061272e929190612abf565b50505050565b61273c6129d1565b600180549050816000018181525050670de0b6b3a764000081602001818152505033816040019073ffffffffffffffffffffffffffffffffffffffff16908173ffffffffffffffffffffffffffffffffffffffff16815250508281606001819052508181608001819052506001819080600181540180825580915050600190039060005260206000209060060201600090919091909150600082015181600001556020820151816001015560408201518160020160006101000a81548173ffffffffffffffffffffffffffffffffffffffff021916908373ffffffffffffffffffffffffffffffffffffffff160217905550606082015181600301908051906020019061284a929190612abf565b506080820151816004019080519060200190612867929190612abf565b5060a0820151816005019080519060200190612884929190612b45565b505050505050565b60006040518060c0016040528060008054905081526020016000151581526020013373ffffffffffffffffffffffffffffffffffffffff1681526020018581526020018481526020018381525090806001815401808255809150506001900390600052602060002090600502016000909190919091506000820151816000015560208201518160010160006101000a81548160ff02191690831515021790555060408201518160010160016101000a81548173ffffffffffffffffffffffffffffffffffffffff021916908373ffffffffffffffffffffffffffffffffffffffff160217905550606082015181600201908051906020019061298f929190612abf565b5060808201518160030190805190602001906129ac929190612abf565b5060a08201518160040190805190602001906129c9929190612bcf565b505050505050565b6040518060c001604052806000815260200160008152602001600073ffffffffffffffffffffffffffffffffffffffff1681526020016060815260200160608152602001606081525090565b6040518060c0016040528060008152602001600015158152602001600073ffffffffffffffffffffffffffffffffffffffff1681526020016060815260200160608152602001606081525090565b60405180608001604052806000815260200160008152602001600073ffffffffffffffffffffffffffffffffffffffff168152602001600073ffffffffffffffffffffffffffffffffffffffff1681525090565b828054612acb90613770565b90600052602060002090601f016020900481019282612aed5760008555612b34565b82601f10612b0657805160ff1916838001178555612b34565b82800160010185558215612b34579182015b82811115612b33578251825591602001919060010190612b18565b5b509050612b419190612c2f565b5090565b828054828255906000526020600020908101928215612bbe579160200282015b82811115612bbd5782518260006101000a81548173ffffffffffffffffffffffffffffffffffffffff021916908373ffffffffffffffffffffffffffffffffffffffff16021790555091602001919060010190612b65565b5b509050612bcb9190612c2f565b5090565b828054828255906000526020600020908101928215612c1e579160200282015b82811115612c1d578251829080519060200190612c0d929190612abf565b5091602001919060010190612bef565b5b509050612c2b9190612c4c565b5090565b5b80821115612c48576000816000905550600101612c30565b5090565b5b80821115612c6c5760008181612c639190612c70565b50600101612c4d565b5090565b508054612c7c90613770565b6000825580601f10612c8e5750612cad565b601f016020900490600052602060002090810190612cac9190612c2f565b5b50565b6000612cc3612cbe84613578565b613553565b9050808382526020820190508260005b85811015612d035781358501612ce98882612d8a565b845260208401935060208301925050600181019050612cd3565b5050509392505050565b6000612d20612d1b846135a4565b613553565b905082815260208101848484011115612d3857600080fd5b612d4384828561372e565b509392505050565b600081359050612d5a816138ba565b92915050565b600082601f830112612d7157600080fd5b8135612d81848260208601612cb0565b91505092915050565b600082601f830112612d9b57600080fd5b8135612dab848260208601612d0d565b91505092915050565b600081359050612dc3816138d1565b92915050565b600060208284031215612ddb57600080fd5b6000612de984828501612d4b565b91505092915050565b60008060408385031215612e0557600080fd5b600083013567ffffffffffffffff811115612e1f57600080fd5b612e2b85828601612d8a565b925050602083013567ffffffffffffffff811115612e4857600080fd5b612e5485828601612d8a565b9150509250929050565b600080600060608486031215612e7357600080fd5b600084013567ffffffffffffffff811115612e8d57600080fd5b612e9986828701612d8a565b935050602084013567ffffffffffffffff811115612eb657600080fd5b612ec286828701612d8a565b925050604084013567ffffffffffffffff811115612edf57600080fd5b612eeb86828701612d60565b9150509250925092565b600060208284031215612f0757600080fd5b6000612f1584828501612db4565b91505092915050565b600080600060608486031215612f3357600080fd5b6000612f4186828701612db4565b935050602084013567ffffffffffffffff811115612f5e57600080fd5b612f6a86828701612d8a565b925050604084013567ffffffffffffffff811115612f8757600080fd5b612f9386828701612d8a565b9150509250925092565b60008060408385031215612fb057600080fd5b6000612fbe85828601612db4565b9250506020612fcf85828601612db4565b9150509250929050565b6000612fe58383613031565b60208301905092915050565b6000612ffd8383613204565b905092915050565b60006130118383613276565b905092915050565b6000613025838361330d565b60808301905092915050565b61303a816136e6565b82525050565b613049816136e6565b82525050565b600061305a82613615565b6130648185613680565b935061306f836135d5565b8060005b838110156130a05781516130878882612fd9565b97506130928361364c565b925050600181019050613073565b5085935050505092915050565b60006130b882613620565b6130c28185613691565b9350836020820285016130d4856135e5565b8060005b8581101561311057848403895281516130f18582612ff1565b94506130fc83613659565b925060208a019950506001810190506130d8565b50829750879550505050505092915050565b600061312d8261362b565b61313781856136a2565b935083602082028501613149856135f5565b8060005b8581101561318557848403895281516131668582613005565b945061317183613666565b925060208a0199505060018101905061314d565b50829750879550505050505092915050565b60006131a282613636565b6131ac81856136b3565b93506131b783613605565b8060005b838110156131e85781516131cf8882613019565b97506131da83613673565b9250506001810190506131bb565b5085935050505092915050565b6131fe816136f8565b82525050565b600061320f82613641565b61321981856136c4565b935061322981856020860161373d565b613232816138a9565b840191505092915050565b600061324882613641565b61325281856136d5565b935061326281856020860161373d565b61326b816138a9565b840191505092915050565b600060c08301600083015161328e60008601826133f9565b5060208301516132a160208601826131f5565b5060408301516132b46040860182613031565b50606083015184820360608601526132cc8282613204565b915050608083015184820360808601526132e68282613204565b91505060a083015184820360a086015261330082826130ad565b9150508091505092915050565b60808201600082015161332360008501826133f9565b50602082015161333660208501826133f9565b5060408201516133496040850182613031565b50606082015161335c6060850182613031565b50505050565b600060c08301600083015161337a60008601826133f9565b50602083015161338d60208601826133f9565b5060408301516133a06040860182613031565b50606083015184820360608601526133b88282613204565b915050608083015184820360808601526133d28282613204565b91505060a083015184820360a08601526133ec828261304f565b9150508091505092915050565b61340281613724565b82525050565b61341181613724565b82525050565b600060208201905081810360008301526134318184613122565b905092915050565b600060408201905081810360008301526134538185613122565b905081810360208301526134678184613362565b90509392505050565b6000602082019050818103600083015261348a8184613197565b905092915050565b60006020820190506134a76000830184613408565b92915050565b60006080820190506134c26000830187613408565b6134cf6020830186613408565b6134dc6040830185613040565b6134e96060830184613040565b95945050505050565b600060a0820190506135076000830188613408565b6135146020830187613408565b6135216040830186613040565b8181036060830152613533818561323d565b90508181036080830152613547818461323d565b90509695505050505050565b600061355d61356e565b905061356982826137a2565b919050565b6000604051905090565b600067ffffffffffffffff8211156135935761359261387a565b5b602082029050602081019050919050565b600067ffffffffffffffff8211156135bf576135be61387a565b5b6135c8826138a9565b9050602081019050919050565b6000819050602082019050919050565b6000819050602082019050919050565b6000819050602082019050919050565b6000819050602082019050919050565b600081519050919050565b600081519050919050565b600081519050919050565b600081519050919050565b600081519050919050565b6000602082019050919050565b6000602082019050919050565b6000602082019050919050565b6000602082019050919050565b600082825260208201905092915050565b600082825260208201905092915050565b600082825260208201905092915050565b600082825260208201905092915050565b600082825260208201905092915050565b600082825260208201905092915050565b60006136f182613704565b9050919050565b60008115159050919050565b600073ffffffffffffffffffffffffffffffffffffffff82169050919050565b6000819050919050565b82818337600083830152505050565b60005b8381101561375b578082015181840152602081019050613740565b8381111561376a576000848401525b50505050565b6000600282049050600182168061378857607f821691505b6020821081141561379c5761379b61384b565b5b50919050565b6137ab826138a9565b810181811067ffffffffffffffff821117156137ca576137c961387a565b5b80604052505050565b60006137de82613724565b91507fffffffffffffffffffffffffffffffffffffffffffffffffffffffffffffffff8214156138115761381061381c565b5b600182019050919050565b7f4e487b7100000000000000000000000000000000000000000000000000000000600052601160045260246000fd5b7f4e487b7100000000000000000000000000000000000000000000000000000000600052602260045260246000fd5b7f4e487b7100000000000000000000000000000000000000000000000000000000600052604160045260246000fd5b6000601f19601f8301169050919050565b6138c3816136e6565b81146138ce57600080fd5b50565b6138da81613724565b81146138e557600080fd5b5056fea26469706673582212203ea9061f3c451ec9314d4bf3cb4df2feb235c295316937d48ca514892a9820e464736f6c63430008020033",
  "immutableReferences": {},
  "source": "// SPDX-License-Identifier: MIT\r\npragma solidity >=0.4.22 <0.9.0;\r\n\r\ncontract Patreon {\r\n\r\n  struct Post {\r\n    uint id;\r\n    bool isPublic;\r\n    address creatorAddress;\r\n    string postName;\r\n    string postDescription;\r\n    string[] images;\r\n  }\r\n\r\n  struct Subscription {\r\n    uint expiryTimestamp;\r\n    uint amount;\r\n    address userAddress;\r\n    address creatorAddress;\r\n  }\r\n\r\n  struct User {\r\n    uint id;\r\n    uint amount;\r\n    address userAddress;\r\n    string username;\r\n    string description;\r\n    address[] subscribers;\r\n  }\r\n\r\n\r\n  Post[] posts;\r\n  User[] public users;\r\n  Subscription[] public subscriptions;\r\n\r\n  function postsCount() public view returns(uint) {\r\n    return posts.length;\r\n  }\r\n\r\n  function getSubscriptions() external view returns(Subscription[] memory) {\r\n    uint j = 0;\r\n    for (uint i = 0; i < subscriptions.length; i++) {\r\n      if ( subscriptions[i].userAddress == msg.sender ) {\r\n        j++;\r\n      }\r\n    }\r\n    Subscription[] memory _subscriptions = new Subscription[](j);\r\n    j = 0;\r\n    for (uint i = 0; i < subscriptions.length; i++) {\r\n      if ( subscriptions[i].userAddress == msg.sender ) {\r\n        _subscriptions[j] = subscriptions[i];\r\n        j++;\r\n      }\r\n    }\r\n    return _subscriptions;\r\n  }\r\n\r\n  function getPosts() external view returns(Post[] memory) {\r\n    uint j = 0;\r\n    for (uint i = 0; i < posts.length; i++) {\r\n      bool flag = false;\r\n      for (uint k = 0; k < subscriptions.length; k++) {\r\n        if (subscriptions[k].userAddress == msg.sender && posts[i].creatorAddress == subscriptions[k].creatorAddress) {\r\n          flag = true;\r\n        }\r\n      }\r\n      if (flag || posts[i].isPublic ) {\r\n        j++;\r\n      }\r\n    }\r\n    Post[] memory _posts = new Post[](j);\r\n    j = 0;\r\n    for (uint i = 0; i < posts.length; i++) {\r\n      bool flag = false;\r\n      for (uint k = 0; k < subscriptions.length; k++) {\r\n        if ( subscriptions[k].userAddress == msg.sender && posts[i].creatorAddress == subscriptions[k].creatorAddress ) {\r\n          flag = true;\r\n        }\r\n      }\r\n      if (flag || posts[i].isPublic) {\r\n        _posts[j] = posts[i];\r\n        j++;\r\n      }\r\n    }\r\n    return _posts;\r\n  }\r\n\r\n  function getCreatorData(address _creatorAddress) external view returns(Post[] memory, User memory ) {\r\n    uint j = 0;\r\n    for (uint i = 0; i < posts.length; i++) {\r\n      if (posts[i].creatorAddress == _creatorAddress) {\r\n        bool flag = false;\r\n        for (uint k = 0; k < subscriptions.length; k++) {\r\n          if (subscriptions[k].userAddress == msg.sender && posts[i].creatorAddress == subscriptions[k].creatorAddress) {\r\n            flag = true;\r\n          }\r\n        }\r\n        if (flag || posts[i].isPublic ) {\r\n          j++;\r\n        }\r\n      }\r\n    }\r\n    Post[] memory _posts = new Post[](j);\r\n    j = 0;\r\n    for (uint i = 0; i < posts.length; i++) {\r\n      if(posts[i].creatorAddress == _creatorAddress) {\r\n        bool flag = false;\r\n        for (uint k = 0; k < subscriptions.length; k++) {\r\n          if ( subscriptions[k].userAddress == msg.sender && posts[i].creatorAddress == subscriptions[k].creatorAddress ) {\r\n            flag = true;\r\n          }\r\n        }\r\n        if (flag || posts[i].isPublic) {\r\n          _posts[j] = posts[i];\r\n          j++;\r\n        }\r\n      }\r\n    }\r\n    User memory user;\r\n    for (uint i = 0; i < users.length; i++) {\r\n      if (users[i].userAddress == _creatorAddress) {\r\n        user = users[i];\r\n      }\r\n    }\r\n    return (_posts, user);\r\n  }\r\n\r\n  function createUser(string memory _username, string memory _description) external {\r\n    User memory user;\r\n    user.id = users.length;\r\n    user.amount = 1 ether;\r\n    user.userAddress = msg.sender;\r\n    user.username = _username;\r\n    user.description = _description;\r\n    users.push(user);\r\n  }\r\n\r\n  function createPost( string memory _postName, string memory _postDescription, string[] memory _images) external {\r\n    posts.push(Post(posts.length, false, msg.sender, _postName, _postDescription, _images));\r\n  }\r\n\r\n  function updatePost(uint _id,  string memory _postName, string memory _postDescription) external {\r\n    require(msg.sender == posts[_id].creatorAddress);\r\n    posts[_id].postName = _postName;\r\n    posts[_id].postDescription = _postDescription;\r\n  }\r\n\r\n function subscribeToCreator(uint _id, uint _expiryTimestamp)external payable{\r\n   for(uint i = 0 ; i<users.length; i++){\r\n     if(users[i].id == _id){\r\n       \r\n        uint c = users[i].subscribers.length;\r\n        users[i].subscribers[c] = msg.sender;\r\n        require(msg.value >= users[i].amount);\r\n   payable(users[i].userAddress).transfer(msg.value);\r\n   subscriptions.push(Subscription(_expiryTimestamp, users[i].amount, msg.sender, users[i].userAddress));\r\n   break;\r\n   }\r\n   }\r\n\r\n }\r\n\r\n function renewSubscription(uint _id, uint _expiryTimestamp)external payable{\r\n   for(uint i = 0; i<users.length; i++){\r\n     if(users[i].id==_id){\r\n       for(uint j = 0; j<subscriptions.length; j++){\r\n         if(subscriptions[j].userAddress == msg.sender && subscriptions[j].creatorAddress == users[i].userAddress){\r\n           subscriptions[j].expiryTimestamp = _expiryTimestamp;\r\n           require(msg.value >= users[i].amount);\r\n          payable(users[i].userAddress).transfer(msg.value);\r\n          break;\r\n         }\r\n       }\r\n       break;\r\n     }\r\n   }\r\n\r\n }\r\n\r\n  // function buyPost(uint _id) external payable {\r\n  //   require(msg.value >= posts[_id].amount);\r\n    \r\n  // }\r\n\r\n\r\n}\r\n\r\n",
  "sourcePath": "C:\\Users\\SNEHA\\CryptoRebels\\truffle\\contracts\\Patreon.sol",
  "compiler": {
    "name": "solc",
    "version": "0.8.2+commit.661d1103.Emscripten.clang"
  },
  "schemaVersion": "3.4.4",
  "updatedAt": "2022-02-26T17:10:35.844Z",
  "devdoc": {
    "kind": "dev",
    "methods": {},
    "version": 1
  },
  "userdoc": {
    "kind": "user",
    "methods": {},
    "version": 1
  }
}