{
  "contractName": "temp",
  "abi": [
    {
      "inputs": [
        {
          "internalType": "uint256",
          "name": "",
          "type": "uint256"
        }
      ],
      "name": "subscriptions",
      "outputs": [
        {
          "internalType": "uint256",
          "name": "expiryTimestamp",
          "type": "uint256"
        },
        {
          "internalType": "uint256",
          "name": "amount",
          "type": "uint256"
        },
        {
          "internalType": "address",
          "name": "userAddress",
          "type": "address"
        },
        {
          "internalType": "address",
          "name": "creatorAddress",
          "type": "address"
        }
      ],
      "stateMutability": "view",
      "type": "function"
    },
    {
      "inputs": [
        {
          "internalType": "uint256",
          "name": "",
          "type": "uint256"
        }
      ],
      "name": "users",
      "outputs": [
        {
          "internalType": "uint256",
          "name": "id",
          "type": "uint256"
        },
        {
          "internalType": "uint256",
          "name": "amount",
          "type": "uint256"
        },
        {
          "internalType": "address",
          "name": "userAddress",
          "type": "address"
        },
        {
          "internalType": "string",
          "name": "username",
          "type": "string"
        },
        {
          "internalType": "string",
          "name": "description",
          "type": "string"
        }
      ],
      "stateMutability": "view",
      "type": "function"
    },
    {
      "inputs": [],
      "name": "postsCount",
      "outputs": [
        {
          "internalType": "uint256",
          "name": "",
          "type": "uint256"
        }
      ],
      "stateMutability": "view",
      "type": "function"
    },
    {
      "inputs": [],
      "name": "getSubscriptions",
      "outputs": [
        {
          "components": [
            {
              "internalType": "uint256",
              "name": "expiryTimestamp",
              "type": "uint256"
            },
            {
              "internalType": "uint256",
              "name": "amount",
              "type": "uint256"
            },
            {
              "internalType": "address",
              "name": "userAddress",
              "type": "address"
            },
            {
              "internalType": "address",
              "name": "creatorAddress",
              "type": "address"
            }
          ],
          "internalType": "struct temp.Subscription[]",
          "name": "",
          "type": "tuple[]"
        }
      ],
      "stateMutability": "view",
      "type": "function"
    },
    {
      "inputs": [],
      "name": "getPosts",
      "outputs": [
        {
          "components": [
            {
              "internalType": "uint256",
              "name": "id",
              "type": "uint256"
            },
            {
              "internalType": "bool",
              "name": "isPublic",
              "type": "bool"
            },
            {
              "internalType": "address",
              "name": "creatorAddress",
              "type": "address"
            },
            {
              "internalType": "string",
              "name": "postName",
              "type": "string"
            },
            {
              "internalType": "string",
              "name": "postDescription",
              "type": "string"
            },
            {
              "internalType": "string[]",
              "name": "images",
              "type": "string[]"
            }
          ],
          "internalType": "struct temp.Post[]",
          "name": "",
          "type": "tuple[]"
        }
      ],
      "stateMutability": "view",
      "type": "function"
    },
    {
      "inputs": [
        {
          "internalType": "string",
          "name": "_username",
          "type": "string"
        },
        {
          "internalType": "string",
          "name": "_description",
          "type": "string"
        }
      ],
      "name": "createUser",
      "outputs": [],
      "stateMutability": "nonpayable",
      "type": "function"
    },
    {
      "inputs": [
        {
          "internalType": "string",
          "name": "_postName",
          "type": "string"
        },
        {
          "internalType": "string",
          "name": "_postDescription",
          "type": "string"
        },
        {
          "internalType": "string[]",
          "name": "_images",
          "type": "string[]"
        }
      ],
      "name": "createPost",
      "outputs": [],
      "stateMutability": "nonpayable",
      "type": "function"
    },
    {
      "inputs": [
        {
          "internalType": "uint256",
          "name": "_id",
          "type": "uint256"
        },
        {
          "internalType": "string",
          "name": "_postName",
          "type": "string"
        },
        {
          "internalType": "string",
          "name": "_postDescription",
          "type": "string"
        }
      ],
      "name": "updatePost",
      "outputs": [],
      "stateMutability": "nonpayable",
      "type": "function"
    }
  ],
  "bytecode": "0x608060405234801561001057600080fd5b50612033806100206000396000f3fe608060405234801561001057600080fd5b50600436106100885760003560e01c806341f3004a1161005b57806341f3004a1461013057806366d1cac91461014e57806387b162b51461016a578063b01c7a4d1461018657610088565b80632d5bbf601461008d5780632dcbe545146100c0578063365b98b2146100de5780633b47a9ac14610112575b600080fd5b6100a760048036038101906100a291906117da565b6101a2565b6040516100b79493929190611c12565b60405180910390f35b6100c8610222565b6040516100d59190611bf7565b60405180910390f35b6100f860048036038101906100f391906117da565b61022e565b604051610109959493929190611c57565b60405180910390f35b61011a6103a4565b6040516101279190611bd5565b60405180910390f35b61013861072c565b6040516101459190611bb3565b60405180910390f35b61016860048036038101906101639190611803565b610eef565b005b610184600480360381019061017f91906116d7565b611057565b005b6101a0600480360381019061019b9190611743565b6111af565b005b600281815481106101b257600080fd5b90600052602060002090600402016000915090508060000154908060010154908060020160009054906101000a900473ffffffffffffffffffffffffffffffffffffffff16908060030160009054906101000a900473ffffffffffffffffffffffffffffffffffffffff16905084565b60008080549050905090565b6001818154811061023e57600080fd5b90600052602060002090600602016000915090508060000154908060010154908060020160009054906101000a900473ffffffffffffffffffffffffffffffffffffffff169080600301805461029390611e9c565b80601f01602080910402602001604051908101604052809291908181526020018280546102bf90611e9c565b801561030c5780601f106102e15761010080835404028352916020019161030c565b820191906000526020600020905b8154815290600101906020018083116102ef57829003601f168201915b50505050509080600401805461032190611e9c565b80601f016020809104026020016040519081016040528092919081815260200182805461034d90611e9c565b801561039a5780601f1061036f5761010080835404028352916020019161039a565b820191906000526020600020905b81548152906001019060200180831161037d57829003601f168201915b5050505050905085565b60606000805b600280549050811015610478573373ffffffffffffffffffffffffffffffffffffffff1660028281548110610408577f4e487b7100000000000000000000000000000000000000000000000000000000600052603260045260246000fd5b906000526020600020906004020160020160009054906101000a900473ffffffffffffffffffffffffffffffffffffffff1673ffffffffffffffffffffffffffffffffffffffff16141561046557818061046190611eff565b9250505b808061047090611eff565b9150506103aa565b5060008167ffffffffffffffff8111156104bb577f4e487b7100000000000000000000000000000000000000000000000000000000600052604160045260246000fd5b6040519080825280602002602001820160405280156104f457816020015b6104e16112f4565b8152602001906001900390816104d95790505b5090506000915060005b600280549050811015610723573373ffffffffffffffffffffffffffffffffffffffff166002828154811061055c577f4e487b7100000000000000000000000000000000000000000000000000000000600052603260045260246000fd5b906000526020600020906004020160020160009054906101000a900473ffffffffffffffffffffffffffffffffffffffff1673ffffffffffffffffffffffffffffffffffffffff16141561071057600281815481106105e4577f4e487b7100000000000000000000000000000000000000000000000000000000600052603260045260246000fd5b906000526020600020906004020160405180608001604052908160008201548152602001600182015481526020016002820160009054906101000a900473ffffffffffffffffffffffffffffffffffffffff1673ffffffffffffffffffffffffffffffffffffffff1673ffffffffffffffffffffffffffffffffffffffff1681526020016003820160009054906101000a900473ffffffffffffffffffffffffffffffffffffffff1673ffffffffffffffffffffffffffffffffffffffff1673ffffffffffffffffffffffffffffffffffffffff16815250508284815181106106f6577f4e487b7100000000000000000000000000000000000000000000000000000000600052603260045260246000fd5b6020026020010181905250828061070c90611eff565b9350505b808061071b90611eff565b9150506104fe565b50809250505090565b60606000805b60008054905081101561093e576000805b600280549050811015610914573373ffffffffffffffffffffffffffffffffffffffff16600282815481106107a1577f4e487b7100000000000000000000000000000000000000000000000000000000600052603260045260246000fd5b906000526020600020906004020160020160009054906101000a900473ffffffffffffffffffffffffffffffffffffffff1673ffffffffffffffffffffffffffffffffffffffff161480156108f757506002818154811061082b577f4e487b7100000000000000000000000000000000000000000000000000000000600052603260045260246000fd5b906000526020600020906004020160030160009054906101000a900473ffffffffffffffffffffffffffffffffffffffff1673ffffffffffffffffffffffffffffffffffffffff16600084815481106108ad577f4e487b7100000000000000000000000000000000000000000000000000000000600052603260045260246000fd5b906000526020600020906005020160010160019054906101000a900473ffffffffffffffffffffffffffffffffffffffff1673ffffffffffffffffffffffffffffffffffffffff16145b1561090157600191505b808061090c90611eff565b915050610743565b50801561092a57828061092690611eff565b9350505b50808061093690611eff565b915050610732565b5060008167ffffffffffffffff811115610981577f4e487b7100000000000000000000000000000000000000000000000000000000600052604160045260246000fd5b6040519080825280602002602001820160405280156109ba57816020015b6109a7611348565b81526020019060019003908161099f5790505b5090506000915060005b600080549050811015610ee6576000805b600280549050811015610ba6573373ffffffffffffffffffffffffffffffffffffffff1660028281548110610a33577f4e487b7100000000000000000000000000000000000000000000000000000000600052603260045260246000fd5b906000526020600020906004020160020160009054906101000a900473ffffffffffffffffffffffffffffffffffffffff1673ffffffffffffffffffffffffffffffffffffffff16148015610b89575060028181548110610abd577f4e487b7100000000000000000000000000000000000000000000000000000000600052603260045260246000fd5b906000526020600020906004020160030160009054906101000a900473ffffffffffffffffffffffffffffffffffffffff1673ffffffffffffffffffffffffffffffffffffffff1660008481548110610b3f577f4e487b7100000000000000000000000000000000000000000000000000000000600052603260045260246000fd5b906000526020600020906005020160010160019054906101000a900473ffffffffffffffffffffffffffffffffffffffff1673ffffffffffffffffffffffffffffffffffffffff16145b15610b9357600191505b8080610b9e90611eff565b9150506109d5565b50600115158115151415610ed25760008281548110610bee577f4e487b7100000000000000000000000000000000000000000000000000000000600052603260045260246000fd5b90600052602060002090600502016040518060c0016040529081600082015481526020016001820160009054906101000a900460ff161515151581526020016001820160019054906101000a900473ffffffffffffffffffffffffffffffffffffffff1673ffffffffffffffffffffffffffffffffffffffff1673ffffffffffffffffffffffffffffffffffffffff168152602001600282018054610c9290611e9c565b80601f0160208091040260200160405190810160405280929190818152602001828054610cbe90611e9c565b8015610d0b5780601f10610ce057610100808354040283529160200191610d0b565b820191906000526020600020905b815481529060010190602001808311610cee57829003601f168201915b50505050508152602001600382018054610d2490611e9c565b80601f0160208091040260200160405190810160405280929190818152602001828054610d5090611e9c565b8015610d9d5780601f10610d7257610100808354040283529160200191610d9d565b820191906000526020600020905b815481529060010190602001808311610d8057829003601f168201915b5050505050815260200160048201805480602002602001604051908101604052809291908181526020016000905b82821015610e77578382906000526020600020018054610dea90611e9c565b80601f0160208091040260200160405190810160405280929190818152602001828054610e1690611e9c565b8015610e635780601f10610e3857610100808354040283529160200191610e63565b820191906000526020600020905b815481529060010190602001808311610e4657829003601f168201915b505050505081526020019060010190610dcb565b5050505081525050838581518110610eb8577f4e487b7100000000000000000000000000000000000000000000000000000000600052603260045260246000fd5b60200260200101819052508380610ece90611eff565b9450505b508080610ede90611eff565b9150506109c4565b50809250505090565b60008381548110610f29577f4e487b7100000000000000000000000000000000000000000000000000000000600052603260045260246000fd5b906000526020600020906005020160010160019054906101000a900473ffffffffffffffffffffffffffffffffffffffff1673ffffffffffffffffffffffffffffffffffffffff163373ffffffffffffffffffffffffffffffffffffffff1614610f9257600080fd5b8160008481548110610fcd577f4e487b7100000000000000000000000000000000000000000000000000000000600052603260045260246000fd5b90600052602060002090600502016002019080519060200190610ff1929190611396565b50806000848154811061102d577f4e487b7100000000000000000000000000000000000000000000000000000000600052603260045260246000fd5b90600052602060002090600502016003019080519060200190611051929190611396565b50505050565b61105f61141c565b600180549050816000018181525050670de0b6b3a764000081602001818152505033816040019073ffffffffffffffffffffffffffffffffffffffff16908173ffffffffffffffffffffffffffffffffffffffff16815250508281606001819052508181608001819052506001819080600181540180825580915050600190039060005260206000209060060201600090919091909150600082015181600001556020820151816001015560408201518160020160006101000a81548173ffffffffffffffffffffffffffffffffffffffff021916908373ffffffffffffffffffffffffffffffffffffffff160217905550606082015181600301908051906020019061116d929190611396565b50608082015181600401908051906020019061118a929190611396565b5060a08201518160050190805190602001906111a7929190611468565b505050505050565b60006040518060c0016040528060008054905081526020016000151581526020013373ffffffffffffffffffffffffffffffffffffffff1681526020018581526020018481526020018381525090806001815401808255809150506001900390600052602060002090600502016000909190919091506000820151816000015560208201518160010160006101000a81548160ff02191690831515021790555060408201518160010160016101000a81548173ffffffffffffffffffffffffffffffffffffffff021916908373ffffffffffffffffffffffffffffffffffffffff16021790555060608201518160020190805190602001906112b2929190611396565b5060808201518160030190805190602001906112cf929190611396565b5060a08201518160040190805190602001906112ec9291906114f2565b505050505050565b60405180608001604052806000815260200160008152602001600073ffffffffffffffffffffffffffffffffffffffff168152602001600073ffffffffffffffffffffffffffffffffffffffff1681525090565b6040518060c0016040528060008152602001600015158152602001600073ffffffffffffffffffffffffffffffffffffffff1681526020016060815260200160608152602001606081525090565b8280546113a290611e9c565b90600052602060002090601f0160209004810192826113c4576000855561140b565b82601f106113dd57805160ff191683800117855561140b565b8280016001018555821561140b579182015b8281111561140a5782518255916020019190600101906113ef565b5b5090506114189190611552565b5090565b6040518060c001604052806000815260200160008152602001600073ffffffffffffffffffffffffffffffffffffffff1681526020016060815260200160608152602001606081525090565b8280548282559060005260206000209081019282156114e1579160200282015b828111156114e05782518260006101000a81548173ffffffffffffffffffffffffffffffffffffffff021916908373ffffffffffffffffffffffffffffffffffffffff16021790555091602001919060010190611488565b5b5090506114ee9190611552565b5090565b828054828255906000526020600020908101928215611541579160200282015b82811115611540578251829080519060200190611530929190611396565b5091602001919060010190611512565b5b50905061154e919061156f565b5090565b5b8082111561156b576000816000905550600101611553565b5090565b5b8082111561158f57600081816115869190611593565b50600101611570565b5090565b50805461159f90611e9c565b6000825580601f106115b157506115d0565b601f0160209004906000526020600020908101906115cf9190611552565b5b50565b60006115e66115e184611cdd565b611cb8565b9050808382526020820190508260005b85811015611626578135850161160c8882611698565b8452602084019350602083019250506001810190506115f6565b5050509392505050565b600061164361163e84611d09565b611cb8565b90508281526020810184848401111561165b57600080fd5b611666848285611e5a565b509392505050565b600082601f83011261167f57600080fd5b813561168f8482602086016115d3565b91505092915050565b600082601f8301126116a957600080fd5b81356116b9848260208601611630565b91505092915050565b6000813590506116d181611fe6565b92915050565b600080604083850312156116ea57600080fd5b600083013567ffffffffffffffff81111561170457600080fd5b61171085828601611698565b925050602083013567ffffffffffffffff81111561172d57600080fd5b61173985828601611698565b9150509250929050565b60008060006060848603121561175857600080fd5b600084013567ffffffffffffffff81111561177257600080fd5b61177e86828701611698565b935050602084013567ffffffffffffffff81111561179b57600080fd5b6117a786828701611698565b925050604084013567ffffffffffffffff8111156117c457600080fd5b6117d08682870161166e565b9150509250925092565b6000602082840312156117ec57600080fd5b60006117fa848285016116c2565b91505092915050565b60008060006060848603121561181857600080fd5b6000611826868287016116c2565b935050602084013567ffffffffffffffff81111561184357600080fd5b61184f86828701611698565b925050604084013567ffffffffffffffff81111561186c57600080fd5b61187886828701611698565b9150509250925092565b600061188e8383611a37565b905092915050565b60006118a28383611aa9565b905092915050565b60006118b68383611b40565b60808301905092915050565b6118cb81611e12565b82525050565b6118da81611e12565b82525050565b60006118eb82611d6a565b6118f58185611dbd565b93508360208202850161190785611d3a565b8060005b8581101561194357848403895281516119248582611882565b945061192f83611d96565b925060208a0199505060018101905061190b565b50829750879550505050505092915050565b600061196082611d75565b61196a8185611dce565b93508360208202850161197c85611d4a565b8060005b858110156119b857848403895281516119998582611896565b94506119a483611da3565b925060208a01995050600181019050611980565b50829750879550505050505092915050565b60006119d582611d80565b6119df8185611ddf565b93506119ea83611d5a565b8060005b83811015611a1b578151611a0288826118aa565b9750611a0d83611db0565b9250506001810190506119ee565b5085935050505092915050565b611a3181611e24565b82525050565b6000611a4282611d8b565b611a4c8185611df0565b9350611a5c818560208601611e69565b611a6581611fd5565b840191505092915050565b6000611a7b82611d8b565b611a858185611e01565b9350611a95818560208601611e69565b611a9e81611fd5565b840191505092915050565b600060c083016000830151611ac16000860182611b95565b506020830151611ad46020860182611a28565b506040830151611ae760408601826118c2565b5060608301518482036060860152611aff8282611a37565b91505060808301518482036080860152611b198282611a37565b91505060a083015184820360a0860152611b3382826118e0565b9150508091505092915050565b608082016000820151611b566000850182611b95565b506020820151611b696020850182611b95565b506040820151611b7c60408501826118c2565b506060820151611b8f60608501826118c2565b50505050565b611b9e81611e50565b82525050565b611bad81611e50565b82525050565b60006020820190508181036000830152611bcd8184611955565b905092915050565b60006020820190508181036000830152611bef81846119ca565b905092915050565b6000602082019050611c0c6000830184611ba4565b92915050565b6000608082019050611c276000830187611ba4565b611c346020830186611ba4565b611c4160408301856118d1565b611c4e60608301846118d1565b95945050505050565b600060a082019050611c6c6000830188611ba4565b611c796020830187611ba4565b611c8660408301866118d1565b8181036060830152611c988185611a70565b90508181036080830152611cac8184611a70565b90509695505050505050565b6000611cc2611cd3565b9050611cce8282611ece565b919050565b6000604051905090565b600067ffffffffffffffff821115611cf857611cf7611fa6565b5b602082029050602081019050919050565b600067ffffffffffffffff821115611d2457611d23611fa6565b5b611d2d82611fd5565b9050602081019050919050565b6000819050602082019050919050565b6000819050602082019050919050565b6000819050602082019050919050565b600081519050919050565b600081519050919050565b600081519050919050565b600081519050919050565b6000602082019050919050565b6000602082019050919050565b6000602082019050919050565b600082825260208201905092915050565b600082825260208201905092915050565b600082825260208201905092915050565b600082825260208201905092915050565b600082825260208201905092915050565b6000611e1d82611e30565b9050919050565b60008115159050919050565b600073ffffffffffffffffffffffffffffffffffffffff82169050919050565b6000819050919050565b82818337600083830152505050565b60005b83811015611e87578082015181840152602081019050611e6c565b83811115611e96576000848401525b50505050565b60006002820490506001821680611eb457607f821691505b60208210811415611ec857611ec7611f77565b5b50919050565b611ed782611fd5565b810181811067ffffffffffffffff82111715611ef657611ef5611fa6565b5b80604052505050565b6000611f0a82611e50565b91507fffffffffffffffffffffffffffffffffffffffffffffffffffffffffffffffff821415611f3d57611f3c611f48565b5b600182019050919050565b7f4e487b7100000000000000000000000000000000000000000000000000000000600052601160045260246000fd5b7f4e487b7100000000000000000000000000000000000000000000000000000000600052602260045260246000fd5b7f4e487b7100000000000000000000000000000000000000000000000000000000600052604160045260246000fd5b6000601f19601f8301169050919050565b611fef81611e50565b8114611ffa57600080fd5b5056fea26469706673582212201accdb144b7e2021fa2dcfddd7974c744132e4da0596afbbca75cf9d702efca764736f6c63430008020033",
  "immutableReferences": {},
  "source": "// SPDX-License-Identifier: MIT\npragma solidity >=0.4.22 <0.9.0;\n\ncontract temp {\n\n  struct Post {\n    uint id;\n    bool isPublic;\n    address creatorAddress;\n    string postName;\n    string postDescription;\n    string[] images;\n  }\n\n  struct Subscription {\n    uint expiryTimestamp;\n    uint amount;\n    address userAddress;\n    address creatorAddress;\n  }\n\n  struct User {\n    uint id;\n    uint amount;\n    address userAddress;\n    string username;\n    string description;\n    address[] subscribers;\n  }\n\n\n  Post[] posts;\n  User[] public users;\n  Subscription[] public subscriptions;\n\n  function postsCount() public view returns(uint) {\n    return posts.length;\n  }\n\n  function getSubscriptions() external view returns(Subscription[] memory) {\n    uint j = 0;\n    for (uint i = 0; i < subscriptions.length; i++) {\n      if ( subscriptions[i].userAddress == msg.sender ) {\n        j++;\n      }\n    }\n    Subscription[] memory _subscriptions = new Subscription[](j);\n    j = 0;\n    for (uint i = 0; i < subscriptions.length; i++) {\n      if ( subscriptions[i].userAddress == msg.sender ) {\n        _subscriptions[j] = subscriptions[i];\n        j++;\n      }\n    }\n    return _subscriptions;\n  }\n\n  function getPosts() external view returns(Post[] memory) {\n    uint j = 0;\n    for (uint i = 0; i < posts.length; i++) {\n      bool flag = false;\n      for (uint k = 0; k < subscriptions.length; k++) {\n        if ( subscriptions[k].userAddress == msg.sender && posts[i].creatorAddress == subscriptions[k].creatorAddress ) {\n          flag = true;\n        }\n      }\n      if (flag) {\n        j++;\n      }\n    }\n    Post[] memory _posts = new Post[](j);\n    j = 0;\n    for (uint i = 0; i < posts.length; i++) {\n      bool flag = false;\n      for (uint k = 0; k < subscriptions.length; k++) {\n        if ( subscriptions[k].userAddress == msg.sender && posts[i].creatorAddress == subscriptions[k].creatorAddress ) {\n          flag = true;\n        }\n      }\n      if (flag == true) {\n        _posts[j] = posts[i];\n        j++;\n      }\n    }\n    return _posts;\n  }\n\n  function createUser(string memory _username, string memory _description) external {\n    User memory user;\n    user.id = users.length;\n    user.amount = 1 ether;\n    user.userAddress = msg.sender;\n    user.username = _username;\n    user.description = _description;\n    users.push(user);\n  }\n\n  function createPost( string memory _postName, string memory _postDescription, string[] memory _images) external {\n    posts.push(Post(posts.length, false, msg.sender, _postName, _postDescription, _images));\n  }\n\n  function updatePost(uint _id,  string memory _postName, string memory _postDescription) external {\n    require(msg.sender == posts[_id].creatorAddress);\n    posts[_id].postName = _postName;\n    posts[_id].postDescription = _postDescription;\n  }\n\n \n\n  // function buyPost(uint _id) external payable {\n  //   require(msg.value >= posts[_id].amount);\n    \n  // }\n\n\n}\n\n",
  "sourcePath": "/home/abhinav/Documents/Projects/CryptoRebels/truffle/contracts/temp.sol",
  "compiler": {
    "name": "solc",
    "version": "0.8.2+commit.661d1103.Emscripten.clang"
  },
  "schemaVersion": "3.4.4",
  "updatedAt": "2022-02-26T07:43:17.182Z",
  "devdoc": {
    "kind": "dev",
    "methods": {},
    "version": 1
  },
  "userdoc": {
    "kind": "user",
    "methods": {},
    "version": 1
  }
}